{
  "_format": "hh-sol-artifact-1",
  "contractName": "TournamentScore",
  "sourceName": "contracts/TournamentScore.sol",
  "abi": [
    {
      "inputs": [
        {
          "internalType": "uint256",
          "name": "index",
          "type": "uint256"
        }
      ],
      "name": "getTournament",
      "outputs": [
        {
          "internalType": "string",
          "name": "",
          "type": "string"
        },
        {
          "internalType": "uint256",
          "name": "",
          "type": "uint256"
        },
        {
          "internalType": "string",
          "name": "",
          "type": "string"
        },
        {
          "internalType": "uint256",
          "name": "",
          "type": "uint256"
        },
        {
          "internalType": "string",
          "name": "",
          "type": "string"
        },
        {
          "internalType": "uint256",
          "name": "",
          "type": "uint256"
        },
        {
          "internalType": "uint256",
          "name": "",
          "type": "uint256"
        }
      ],
      "stateMutability": "view",
      "type": "function"
    },
    {
      "inputs": [],
      "name": "getTournamentCount",
      "outputs": [
        {
          "internalType": "uint256",
          "name": "",
          "type": "uint256"
        }
      ],
      "stateMutability": "view",
      "type": "function"
    },
    {
      "inputs": [
        {
          "internalType": "string",
          "name": "_winner",
          "type": "string"
        },
        {
          "internalType": "uint256",
          "name": "_winnerScore",
          "type": "uint256"
        },
        {
          "internalType": "string",
          "name": "_secondPlace",
          "type": "string"
        },
        {
          "internalType": "uint256",
          "name": "_secondScore",
          "type": "uint256"
        },
        {
          "internalType": "string",
          "name": "_thirdPlace",
          "type": "string"
        },
        {
          "internalType": "uint256",
          "name": "_thirdScore",
          "type": "uint256"
        }
      ],
      "name": "recordTournament",
      "outputs": [],
      "stateMutability": "nonpayable",
      "type": "function"
    },
    {
      "inputs": [
        {
          "internalType": "uint256",
          "name": "",
          "type": "uint256"
        }
      ],
      "name": "tournaments",
      "outputs": [
        {
          "internalType": "string",
          "name": "winner",
          "type": "string"
        },
        {
          "internalType": "uint256",
          "name": "winnerScore",
          "type": "uint256"
        },
        {
          "internalType": "string",
          "name": "secondPlace",
          "type": "string"
        },
        {
          "internalType": "uint256",
          "name": "secondScore",
          "type": "uint256"
        },
        {
          "internalType": "string",
          "name": "thirdPlace",
          "type": "string"
        },
        {
          "internalType": "uint256",
          "name": "thirdScore",
          "type": "uint256"
        },
        {
          "internalType": "uint256",
          "name": "timestamp",
          "type": "uint256"
        }
      ],
      "stateMutability": "view",
      "type": "function"
    }
  ],
  "bytecode": "0x6080604052348015600f57600080fd5b50610d258061001f6000396000f3fe608060405234801561001057600080fd5b506004361061004c5760003560e01c8063078c51f0146100515780631a5bd7fc1461006f5780637503e1b7146100a5578063b8b1baec146100db575b600080fd5b6100596100f7565b6040516100669190610630565b60405180910390f35b6100896004803603810190610084919061068b565b610103565b60405161009c9796959493929190610748565b60405180910390f35b6100bf60048036038101906100ba919061068b565b61035b565b6040516100d29796959493929190610748565b60405180910390f35b6100f560048036038101906100f09190610901565b610545565b005b60008080549050905090565b606060006060600060606000806000808981548110610125576101246109e2565b5b90600052602060002090600702016040518060e001604052908160008201805461014e90610a40565b80601f016020809104026020016040519081016040528092919081815260200182805461017a90610a40565b80156101c75780601f1061019c576101008083540402835291602001916101c7565b820191906000526020600020905b8154815290600101906020018083116101aa57829003601f168201915b50505050508152602001600182015481526020016002820180546101ea90610a40565b80601f016020809104026020016040519081016040528092919081815260200182805461021690610a40565b80156102635780601f1061023857610100808354040283529160200191610263565b820191906000526020600020905b81548152906001019060200180831161024657829003601f168201915b505050505081526020016003820154815260200160048201805461028690610a40565b80601f01602080910402602001604051908101604052809291908181526020018280546102b290610a40565b80156102ff5780601f106102d4576101008083540402835291602001916102ff565b820191906000526020600020905b8154815290600101906020018083116102e257829003601f168201915b50505050508152602001600582015481526020016006820154815250509050806000015181602001518260400151836060015184608001518560a001518660c00151975097509750975097509750975050919395979092949650565b6000818154811061036b57600080fd5b906000526020600020906007020160009150905080600001805461038e90610a40565b80601f01602080910402602001604051908101604052809291908181526020018280546103ba90610a40565b80156104075780601f106103dc57610100808354040283529160200191610407565b820191906000526020600020905b8154815290600101906020018083116103ea57829003601f168201915b50505050509080600101549080600201805461042290610a40565b80601f016020809104026020016040519081016040528092919081815260200182805461044e90610a40565b801561049b5780601f106104705761010080835404028352916020019161049b565b820191906000526020600020905b81548152906001019060200180831161047e57829003601f168201915b5050505050908060030154908060040180546104b690610a40565b80601f01602080910402602001604051908101604052809291908181526020018280546104e290610a40565b801561052f5780601f106105045761010080835404028352916020019161052f565b820191906000526020600020905b81548152906001019060200180831161051257829003601f168201915b5050505050908060050154908060060154905087565b60006040518060e0016040528088815260200187815260200186815260200185815260200184815260200183815260200142815250908060018154018082558091505060019003906000526020600020906007020160009091909190915060008201518160000190816105b89190610c1d565b506020820151816001015560408201518160020190816105d89190610c1d565b506060820151816003015560808201518160040190816105f89190610c1d565b5060a0820151816005015560c082015181600601555050505050505050565b6000819050919050565b61062a81610617565b82525050565b60006020820190506106456000830184610621565b92915050565b6000604051905090565b600080fd5b600080fd5b61066881610617565b811461067357600080fd5b50565b6000813590506106858161065f565b92915050565b6000602082840312156106a1576106a0610655565b5b60006106af84828501610676565b91505092915050565b600081519050919050565b600082825260208201905092915050565b60005b838110156106f25780820151818401526020810190506106d7565b60008484015250505050565b6000601f19601f8301169050919050565b600061071a826106b8565b61072481856106c3565b93506107348185602086016106d4565b61073d816106fe565b840191505092915050565b600060e0820190508181036000830152610762818a61070f565b90506107716020830189610621565b8181036040830152610783818861070f565b90506107926060830187610621565b81810360808301526107a4818661070f565b90506107b360a0830185610621565b6107c060c0830184610621565b98975050505050505050565b600080fd5b600080fd5b7f4e487b7100000000000000000000000000000000000000000000000000000000600052604160045260246000fd5b61080e826106fe565b810181811067ffffffffffffffff8211171561082d5761082c6107d6565b5b80604052505050565b600061084061064b565b905061084c8282610805565b919050565b600067ffffffffffffffff82111561086c5761086b6107d6565b5b610875826106fe565b9050602081019050919050565b82818337600083830152505050565b60006108a461089f84610851565b610836565b9050828152602081018484840111156108c0576108bf6107d1565b5b6108cb848285610882565b509392505050565b600082601f8301126108e8576108e76107cc565b5b81356108f8848260208601610891565b91505092915050565b60008060008060008060c0878903121561091e5761091d610655565b5b600087013567ffffffffffffffff81111561093c5761093b61065a565b5b61094889828a016108d3565b965050602061095989828a01610676565b955050604087013567ffffffffffffffff81111561097a5761097961065a565b5b61098689828a016108d3565b945050606061099789828a01610676565b935050608087013567ffffffffffffffff8111156109b8576109b761065a565b5b6109c489828a016108d3565b92505060a06109d589828a01610676565b9150509295509295509295565b7f4e487b7100000000000000000000000000000000000000000000000000000000600052603260045260246000fd5b7f4e487b7100000000000000000000000000000000000000000000000000000000600052602260045260246000fd5b60006002820490506001821680610a5857607f821691505b602082108103610a6b57610a6a610a11565b5b50919050565b60008190508160005260206000209050919050565b60006020601f8301049050919050565b600082821b905092915050565b600060088302610ad37fffffffffffffffffffffffffffffffffffffffffffffffffffffffffffffffff82610a96565b610add8683610a96565b95508019841693508086168417925050509392505050565b6000819050919050565b6000610b1a610b15610b1084610617565b610af5565b610617565b9050919050565b6000819050919050565b610b3483610aff565b610b48610b4082610b21565b848454610aa3565b825550505050565b600090565b610b5d610b50565b610b68818484610b2b565b505050565b5b81811015610b8c57610b81600082610b55565b600181019050610b6e565b5050565b601f821115610bd157610ba281610a71565b610bab84610a86565b81016020851015610bba578190505b610bce610bc685610a86565b830182610b6d565b50505b505050565b600082821c905092915050565b6000610bf460001984600802610bd6565b1980831691505092915050565b6000610c0d8383610be3565b9150826002028217905092915050565b610c26826106b8565b67ffffffffffffffff811115610c3f57610c3e6107d6565b5b610c498254610a40565b610c54828285610b90565b600060209050601f831160018114610c875760008415610c75578287015190505b610c7f8582610c01565b865550610ce7565b601f198416610c9586610a71565b60005b82811015610cbd57848901518255600182019150602085019450602081019050610c98565b86831015610cda5784890151610cd6601f891682610be3565b8355505b6001600288020188555050505b50505050505056fea2646970667358221220a6ecff7baba0bb4b9dd38d0f4b201dffdfa0f55803d31e6eb52aa488dcd49e4d64736f6c634300081c0033",
  "linkReferences": {},
  "deployedLinkReferences": {}
}