{
  "_format": "hh-sol-artifact-1",
  "contractName": "TournamentScore",
  "sourceName": "contracts/TournamentScore.sol",
  "abi": [
    {
      "inputs": [
        {
          "internalType": "uint256",
          "name": "index",
          "type": "uint256"
        }
      ],
      "name": "getTournament",
      "outputs": [
        {
          "internalType": "string",
          "name": "",
          "type": "string"
        },
        {
          "internalType": "string",
          "name": "",
          "type": "string"
        },
        {
          "internalType": "string",
          "name": "",
          "type": "string"
        },
        {
          "internalType": "string",
          "name": "",
          "type": "string"
        },
        {
          "internalType": "string",
          "name": "",
          "type": "string"
        },
        {
          "internalType": "string",
          "name": "",
          "type": "string"
        },
        {
          "internalType": "uint256",
          "name": "",
          "type": "uint256"
        }
      ],
      "stateMutability": "view",
      "type": "function"
    },
    {
      "inputs": [],
      "name": "getTournamentCount",
      "outputs": [
        {
          "internalType": "uint256",
          "name": "",
          "type": "uint256"
        }
      ],
      "stateMutability": "view",
      "type": "function"
    },
    {
      "inputs": [
        {
          "internalType": "string",
          "name": "_winner",
          "type": "string"
        },
        {
          "internalType": "string",
          "name": "_winnerScore",
          "type": "string"
        },
        {
          "internalType": "string",
          "name": "_secondPlace",
          "type": "string"
        },
        {
          "internalType": "string",
          "name": "_secondScore",
          "type": "string"
        },
        {
          "internalType": "string",
          "name": "_thirdPlace",
          "type": "string"
        },
        {
          "internalType": "string",
          "name": "_thirdScore",
          "type": "string"
        }
      ],
      "name": "recordTournament",
      "outputs": [],
      "stateMutability": "nonpayable",
      "type": "function"
    },
    {
      "inputs": [
        {
          "internalType": "uint256",
          "name": "",
          "type": "uint256"
        }
      ],
      "name": "tournaments",
      "outputs": [
        {
          "internalType": "string",
          "name": "winner",
          "type": "string"
        },
        {
          "internalType": "string",
          "name": "winnerScore",
          "type": "string"
        },
        {
          "internalType": "string",
          "name": "secondPlace",
          "type": "string"
        },
        {
          "internalType": "string",
          "name": "secondScore",
          "type": "string"
        },
        {
          "internalType": "string",
          "name": "thirdPlace",
          "type": "string"
        },
        {
          "internalType": "string",
          "name": "thirdScore",
          "type": "string"
        },
        {
          "internalType": "uint256",
          "name": "timestamp",
          "type": "uint256"
        }
      ],
      "stateMutability": "view",
      "type": "function"
    }
  ],
  "bytecode": "0x6080604052348015600f57600080fd5b506110e08061001f6000396000f3fe608060405234801561001057600080fd5b506004361061004c5760003560e01c8063078c51f0146100515780631a5bd7fc1461006f5780632ef223c4146100a55780637503e1b7146100c1575b600080fd5b6100596100f7565b6040516100669190610982565b60405180910390f35b610089600480360381019061008491906109dd565b610103565b60405161009c9796959493929190610a9a565b60405180910390f35b6100bf60048036038101906100ba9190610c68565b6104f1565b005b6100db60048036038101906100d691906109dd565b6105e7565b6040516100ee9796959493929190610a9a565b60405180910390f35b60008080549050905090565b6060806060806060806000806000898154811061012357610122610d9d565b5b90600052602060002090600702016040518060e001604052908160008201805461014c90610dfb565b80601f016020809104026020016040519081016040528092919081815260200182805461017890610dfb565b80156101c55780601f1061019a576101008083540402835291602001916101c5565b820191906000526020600020905b8154815290600101906020018083116101a857829003601f168201915b505050505081526020016001820180546101de90610dfb565b80601f016020809104026020016040519081016040528092919081815260200182805461020a90610dfb565b80156102575780601f1061022c57610100808354040283529160200191610257565b820191906000526020600020905b81548152906001019060200180831161023a57829003601f168201915b5050505050815260200160028201805461027090610dfb565b80601f016020809104026020016040519081016040528092919081815260200182805461029c90610dfb565b80156102e95780601f106102be576101008083540402835291602001916102e9565b820191906000526020600020905b8154815290600101906020018083116102cc57829003601f168201915b5050505050815260200160038201805461030290610dfb565b80601f016020809104026020016040519081016040528092919081815260200182805461032e90610dfb565b801561037b5780601f106103505761010080835404028352916020019161037b565b820191906000526020600020905b81548152906001019060200180831161035e57829003601f168201915b5050505050815260200160048201805461039490610dfb565b80601f01602080910402602001604051908101604052809291908181526020018280546103c090610dfb565b801561040d5780601f106103e25761010080835404028352916020019161040d565b820191906000526020600020905b8154815290600101906020018083116103f057829003601f168201915b5050505050815260200160058201805461042690610dfb565b80601f016020809104026020016040519081016040528092919081815260200182805461045290610dfb565b801561049f5780601f106104745761010080835404028352916020019161049f565b820191906000526020600020905b81548152906001019060200180831161048257829003601f168201915b505050505081526020016006820154815250509050806000015181602001518260400151836060015184608001518560a001518660c00151975097509750975097509750975050919395979092949650565b60006040518060e0016040528088815260200187815260200186815260200185815260200184815260200183815260200142815250908060018154018082558091505060019003906000526020600020906007020160009091909190915060008201518160000190816105649190610fd8565b50602082015181600101908161057a9190610fd8565b5060408201518160020190816105909190610fd8565b5060608201518160030190816105a69190610fd8565b5060808201518160040190816105bc9190610fd8565b5060a08201518160050190816105d29190610fd8565b5060c082015181600601555050505050505050565b600081815481106105f757600080fd5b906000526020600020906007020160009150905080600001805461061a90610dfb565b80601f016020809104026020016040519081016040528092919081815260200182805461064690610dfb565b80156106935780601f1061066857610100808354040283529160200191610693565b820191906000526020600020905b81548152906001019060200180831161067657829003601f168201915b5050505050908060010180546106a890610dfb565b80601f01602080910402602001604051908101604052809291908181526020018280546106d490610dfb565b80156107215780601f106106f657610100808354040283529160200191610721565b820191906000526020600020905b81548152906001019060200180831161070457829003601f168201915b50505050509080600201805461073690610dfb565b80601f016020809104026020016040519081016040528092919081815260200182805461076290610dfb565b80156107af5780601f10610784576101008083540402835291602001916107af565b820191906000526020600020905b81548152906001019060200180831161079257829003601f168201915b5050505050908060030180546107c490610dfb565b80601f01602080910402602001604051908101604052809291908181526020018280546107f090610dfb565b801561083d5780601f106108125761010080835404028352916020019161083d565b820191906000526020600020905b81548152906001019060200180831161082057829003601f168201915b50505050509080600401805461085290610dfb565b80601f016020809104026020016040519081016040528092919081815260200182805461087e90610dfb565b80156108cb5780601f106108a0576101008083540402835291602001916108cb565b820191906000526020600020905b8154815290600101906020018083116108ae57829003601f168201915b5050505050908060050180546108e090610dfb565b80601f016020809104026020016040519081016040528092919081815260200182805461090c90610dfb565b80156109595780601f1061092e57610100808354040283529160200191610959565b820191906000526020600020905b81548152906001019060200180831161093c57829003601f168201915b5050505050908060060154905087565b6000819050919050565b61097c81610969565b82525050565b60006020820190506109976000830184610973565b92915050565b6000604051905090565b600080fd5b600080fd5b6109ba81610969565b81146109c557600080fd5b50565b6000813590506109d7816109b1565b92915050565b6000602082840312156109f3576109f26109a7565b5b6000610a01848285016109c8565b91505092915050565b600081519050919050565b600082825260208201905092915050565b60005b83811015610a44578082015181840152602081019050610a29565b60008484015250505050565b6000601f19601f8301169050919050565b6000610a6c82610a0a565b610a768185610a15565b9350610a86818560208601610a26565b610a8f81610a50565b840191505092915050565b600060e0820190508181036000830152610ab4818a610a61565b90508181036020830152610ac88189610a61565b90508181036040830152610adc8188610a61565b90508181036060830152610af08187610a61565b90508181036080830152610b048186610a61565b905081810360a0830152610b188185610a61565b9050610b2760c0830184610973565b98975050505050505050565b600080fd5b600080fd5b7f4e487b7100000000000000000000000000000000000000000000000000000000600052604160045260246000fd5b610b7582610a50565b810181811067ffffffffffffffff82111715610b9457610b93610b3d565b5b80604052505050565b6000610ba761099d565b9050610bb38282610b6c565b919050565b600067ffffffffffffffff821115610bd357610bd2610b3d565b5b610bdc82610a50565b9050602081019050919050565b82818337600083830152505050565b6000610c0b610c0684610bb8565b610b9d565b905082815260208101848484011115610c2757610c26610b38565b5b610c32848285610be9565b509392505050565b600082601f830112610c4f57610c4e610b33565b5b8135610c5f848260208601610bf8565b91505092915050565b60008060008060008060c08789031215610c8557610c846109a7565b5b600087013567ffffffffffffffff811115610ca357610ca26109ac565b5b610caf89828a01610c3a565b965050602087013567ffffffffffffffff811115610cd057610ccf6109ac565b5b610cdc89828a01610c3a565b955050604087013567ffffffffffffffff811115610cfd57610cfc6109ac565b5b610d0989828a01610c3a565b945050606087013567ffffffffffffffff811115610d2a57610d296109ac565b5b610d3689828a01610c3a565b935050608087013567ffffffffffffffff811115610d5757610d566109ac565b5b610d6389828a01610c3a565b92505060a087013567ffffffffffffffff811115610d8457610d836109ac565b5b610d9089828a01610c3a565b9150509295509295509295565b7f4e487b7100000000000000000000000000000000000000000000000000000000600052603260045260246000fd5b7f4e487b7100000000000000000000000000000000000000000000000000000000600052602260045260246000fd5b60006002820490506001821680610e1357607f821691505b602082108103610e2657610e25610dcc565b5b50919050565b60008190508160005260206000209050919050565b60006020601f8301049050919050565b600082821b905092915050565b600060088302610e8e7fffffffffffffffffffffffffffffffffffffffffffffffffffffffffffffffff82610e51565b610e988683610e51565b95508019841693508086168417925050509392505050565b6000819050919050565b6000610ed5610ed0610ecb84610969565b610eb0565b610969565b9050919050565b6000819050919050565b610eef83610eba565b610f03610efb82610edc565b848454610e5e565b825550505050565b600090565b610f18610f0b565b610f23818484610ee6565b505050565b5b81811015610f4757610f3c600082610f10565b600181019050610f29565b5050565b601f821115610f8c57610f5d81610e2c565b610f6684610e41565b81016020851015610f75578190505b610f89610f8185610e41565b830182610f28565b50505b505050565b600082821c905092915050565b6000610faf60001984600802610f91565b1980831691505092915050565b6000610fc88383610f9e565b9150826002028217905092915050565b610fe182610a0a565b67ffffffffffffffff811115610ffa57610ff9610b3d565b5b6110048254610dfb565b61100f828285610f4b565b600060209050601f8311600181146110425760008415611030578287015190505b61103a8582610fbc565b8655506110a2565b601f19841661105086610e2c565b60005b8281101561107857848901518255600182019150602085019450602081019050611053565b868310156110955784890151611091601f891682610f9e565b8355505b6001600288020188555050505b50505050505056fea26469706673582212203ad06f0dfbca54bb9b7c00761008d89177bf8352ee7fbda6eb551909d097fa8464736f6c634300081c0033",
  "linkReferences": {},
  "deployedLinkReferences": {}
}